:020000040800F2
:10000000605A0020CD050008B9020008BB020008B4
:10001000C7020008D3020008DF0200080000000049
:10002000000000000000000000000000EB020008DB
:10003000ED02000800000000E3050008EF020008E0
:10004000E7050008E7050008E7050008F3020008D7
:10005000E7050008E7050008F1020008E7050008C9
:10006000E7050008E7050008E7050008E7050008C0
:10007000E7050008E7050008E7050008E7050008B0
:10008000E7050008E7050008E7050008E7050008A0
:10009000E7050008E7050008E7050008E705000890
:1000A000E7050008E7050008E7050008E705000880
:1000B000A9460008E7050008E7050008E70500086D
:1000C000E7050008E7050008E7050008E705000860
:1000D000E7050008E7050008194B0008192A000881
:1000E000E7050008E7050008E7050008E705000840
:1000F000E7050008E7050008E7050008E705000830
:10010000E7050008E7050008E7050008E70500081F
:10011000E7050008E7050008E7050008E70500080F
:10012000E7050008E7050008E7050008E7050008FF
:1001300000F002F800F0B0F80AA090E8000C824449
:100140008344AAF10107DA4501D100F0A5F8AFF226
:10015000090EBAE80F0013F0010F18BFFB1A43F0A5
:1001600001031847846D0000A46D00000A444FF09D
:10017000000C10F8013B13F0070408BF10F8014B06
:100180001D1108BF10F8015B641E05D010F8016B4B
:10019000641E01F8016BF9D113F0080F1EBF10F8AF
:1001A000014BAD1C0C1B09D16D1E58BF01F801CBD2
:1001B000FAD505E014F8016B01F8016B6D1EF9D555
:1001C0009142D6D37047000000230024002500266A
:1001D000103A28BF78C1FBD8520728BF30C148BFAA
:1001E0000B6070476E2905F00080702905F0618171
:1001F000662906F05885652906F05585672906F0B9
:100200005285612906F0518503681B0A28BF41F019
:100210008001692904F06685642904F063857529E5
:1002200004F060856F2905F0EE80782905F02D81B6
:10023000E92905F08980E42905F08680F52905F093
:100240008380EF2905F0EB80F82905F02C81036805
:10025000DB0928BF41F08001632905F00A8073297A
:1002600005F00F80E32905F03385F32905F0388583
:10027000002070471FB505F085FD04000020002117
:1002800006F044FA401C60600020002106F028FAC5
:10029000E0601FBD10B510BD05F046FD1146FFF72B
:1002A000E9FF04F0B7F905F023FE03B4FFF7F2FF0E
:1002B00003BC05F02BFE000070470EA11C4802F0A5
:1002C00083FB00BFFEE71BA1194802F07DFB00BFC6
:1002D000FEE727A1164802F077FB00BFFEE733A137
:1002E000134802F071FB00BFFEE77047704770478C
:1002F000704770470D0A2A2A2A2A2A2A2A2A2A2AD5
:100300002A2A2A2A2A2A2A2A2A48617264466175D8
:100310006C745F48616E646C65722A2A2A2A2A2AE4
:100320002A2A2A2A2A2A2A2A2A2A2A2A2A0D0A0094
:10033000003801400D0A2A2A2A2A2A2A2A2A2A2A89
:100340002A2A2A2A2A2A2A2A2A4D656D4D616E6197
:1003500067655F48616E646C65722A2A2A2A2A2AB8
:100360002A2A2A2A2A2A2A2A2A2A2A2A2A0D0A0054
:100370000D0A2A2A2A2A2A2A2A2A2A2A2A2A2A2A1A
:100380002A2A2A2A2A4275734661756C745F48616D
:100390006E646C65722A2A2A2A2A2A2A2A2A2A2A7A
:1003A0002A2A2A2A2A2A2A2A0D0A00000D0A2A2A7B
:1003B0002A2A2A2A2A2A2A2A2A2A2A2A2A2A2A2A9D
:1003C0002A55736167654661756C745F48616E6438
:1003D0006C65722A2A2A2A2A2A2A2A2A2A2A2A2AB8
:1003E0002A2A2A2A2A2A0D0A000000000CB5002019
:1003F000019000906C48006840F480306A490860C1
:1004000000BF6948006800F4003000900198401C6B
:100410000190009818B90198B0F5A06FF1D1624829
:10042000006800F4003010B10120009001E00020CD
:1004300000900098012843D15C48006840F010000B
:100440005A4908600846006820F003000860084622
:10045000006840F002000860534840685249486014
:100460000846406848600846406840F4806048603C
:100470000846406820F47C1048600846406840F414
:10048000881048600846006840F08070086000BF2F
:100490004548006800F000700028F9D042484068E4
:1004A00020F00300404948600846406840F00200E0
:1004B000486000BF3C48406800F00C000828F9D1B3
:1004C0000CBD10B5FFF792FF10BD10B5364800689F
:1004D00040F001003449086008464068344908404B
:1004E0003149486008460068324908402E49086092
:1004F0000846006820F4802008600846406820F420
:10050000FE0048604FF41F008860FFF7DAFF4FF0ED
:1005100000602949086010BD10B5002100200022AC
:10052000214B5B6803F00C0121B1042906D0082996
:1005300028D107E0214B224C236027E01F4B204CA1
:10054000236023E0184B5B6803F47010164B5B6864
:1005500003F48032022303EB904022B9194B43434A
:10056000174C23600DE0104B5B6803F4003323B19C
:10057000144B4343124C236003E0104B4343104C95
:10058000236003E00D4B0E4C236000BF00BF064B01
:100590005B68C3F303130C4CE15C094B1B68CB4055
:1005A000074C236010BD00000010024000200240F4
:1005B0000000FFF8FFFFF6FE08ED00E000127A00F1
:1005C0000000002000093D00040000200948804789
:1005D00009480047FEE7FEE7FEE7FEE7FEE7FEE725
:1005E000FEE7FEE7FEE7FEE704480549054A064B3D
:1005F00070470000CB040008310100086042002071
:10060000605A0020604E0020604E0020DF480068E5
:1006100040F00100DD49086008464068DC490840B8
:10062000DA49486008460068DA490840D749086056
:100630000846006820F4802008600846406820F4DE
:10064000FE0048604FF41F0088607047CF4909687A
:1006500021F48031CD4A11601146096821F48021CE
:100660001160B0F5803F03D0B0F5802F0ED106E0C9
:10067000C649096841F48031C44A116007E0C349A2
:10068000096841F4A021C14A116000E000BF00BF29
:10069000704710B501460022002300204A11012AAC
:1006A00002D1BA4C236806E0022A02D1B74C236A71
:1006B00001E0B64C636A01F01F02012494401C4023
:1006C0000CB1012000E0002010BD38B500200090E2
:1006D0000024002500BF3120FFF7DBFF054600980E
:1006E000401C00900098B0F5A06F01D0002DF2D012
:1006F0003120FFF7CEFF08B1012400E0002420469E
:1007000038BD01460020A14A106820F0F80040EAF8
:10071000C10010607047A049086070470246002081
:100720009A4B586820F47C1042EA01031843974B17
:100730005860704798490866704701460020934A00
:10074000506820F003000843506070478F484068AD
:1007500000F00C007047014600208C4A506820F0E1
:10076000F00008435060704701460020874A5068F7
:1007700020F4E06008435060704701460020834A3F
:10078000506820F4605040EAC1005060704729B1C1
:100790007E4A527A02437D4B5A7204E07B4A527A77
:1007A00082437A4B5A7270477B49D8310860704750
:1007B00001460020754A506820F4404008435060CC
:1007C00070470021714A20321170704A82F820105F
:1007D000012802D004280AD104E001216B4A20320A
:1007E000117005E00521694A2032117000E000BF58
:1007F00000BF70476949086070476449096A01434E
:10080000624A11627047654944390860704730B5E3
:1008100000210022002400235C4D6D6805F00C01CE
:1008200021B1042905D0082923D105E05C4D0560DC
:1008300022E05B4D05601FE0544D6D6805F47012B9
:10084000524D6D6805F48034022505EB92421CB9C7
:10085000544D554305600BE04C4D6D6805F4003573
:100860001DB1504D5543056002E04D4D55430560A7
:1008700002E04B4D056000BF00BF444D6D6805F0C0
:10088000F0010909484D6B5C0568DD4045603F4D4E
:100890006D6805F4E061090A434D6B5C4568DD4015
:1008A00085603A4D6D6805F46051C90A3E4D6B5C38
:1008B0004568DD40C560354D6D6805F44041890BE4
:1008C0003A4D6B5CC568B5FBF3F5056130BD29B1E8
:1008D0002E4A526902432D4B5A6104E02B4A526959
:1008E00082432A4B5A61704729B1284A92690243D0
:1008F000264B9A6104E0254A92698243234B9A6110
:10090000704729B1214AD2690243204BDA6104E0E1
:100910001E4AD26982431D4BDA61704729B11B4AD6
:10092000D2680243194BDA6004E0184AD268824365
:10093000164BDA60704729B1144A12690243134B0F
:100940001A6104E0114A12698243104B1A61704720
:1009500012494039086070470F49C86470470B4915
:10096000C87170470948406A40F080700749486282
:10097000704701460020054A92680A400AB10120EA
:1009800000E0002070470149887270470010024063
:100990000000FFF8FFFFF6FE0000424280044242E2
:1009A00000127A0000093D001400002024000020FD
:1009B00031490143314A1160704770B5002100236D
:1009C0000F22C47804B32D4C246804F4E064C4F509
:1009D000E064210AC1F10403CA40447804FA03F137
:1009E0008478144021430901254C0678A1550478E8
:1009F00004F01F050124AC4005786D11AD0005F130
:100A0000E025C5F8004109E0047804F01F05012441
:100A1000AC401C4D0678761145F8264070BD1A4A48
:100A20000A400243154B1B1F1A60704739B1134A25
:100A3000121D12680243114B1B1D1A6006E00F4A7B
:100A4000121D126882430D4B1B1D1A60704704284B
:100A500008D14FF0E021096941F004014FF0E02294
:100A6000116107E04FF0E021096921F004014FF026
:100A7000E0221161704700000000FA050CED00E073
:100A800000E400E080E100E080FFFF1F10B50446B5
:100A9000CC48844208D101210420FFF73FFF002108
:100AA0000420FFF73BFF46E0C748844208D10121FC
:100AB0000820FFF733FF00210820FFF72FFF3AE05F
:100AC000C248844208D101211020FFF727FF0021EE
:100AD0001020FFF723FF2EE0BD48844208D10121FA
:100AE0002020FFF71BFF00212020FFF717FF22E047
:100AF000B848844208D101214020FFF70FFF0021B0
:100B00004020FFF70BFF16E0B348844208D10121D3
:100B10008020FFF703FF00218020FFF7FFFE0AE09F
:100B2000AE48844207D101218015FFF7F7FE00216E
:100B3000A015FFF7F3FE10BD10B501210846FFF721
:100B4000EDFE00210120FFF7E9FE10BD2DE9F04187
:100B5000024600250026002000230024002791F8EB
:100B600003C00CF00F0591F803C00CF0100CBCF1A1
:100B7000000F03D091F802C04CEA050591F800C0BF
:100B8000BCF1000F31D0146800202BE04FF0010CB5
:100B90000CFA00F3B1F800C00CEA03069E4220D123
:100BA00083004FF00F0C0CFA03F7BC4305FA03FC6B
:100BB0004CEA040491F803C0BCF1280F06D14FF0B1
:100BC000010C0CFA00FCC2F814C00AE091F803C052
:100BD000BCF1480F05D14FF0010C0CFA00FCC2F833
:100BE00010C0401C0828D1D31460B1F800C0BCF17B
:100BF000FF0F34DD546800202EE000F1080C4FF0A8
:100C0000010808FA0CF3B1F800C00CEA03069E4292
:100C100021D183004FF00F0C0CFA03F7BC4305FA07
:100C200003FC4CEA040491F803C0BCF1280F05D181
:100C300000F1080C08FA0CF8C2F8148091F803C00F
:100C4000BCF1480F07D100F1080C4FF0010808FA79
:100C50000CF8C2F81080401C0828CED35460BDE8C0
:100C6000F0814FF6FF710180022181700421C17073
:100C700070470246002093680B400BB1012000E052
:100C8000002070470146886880B270470246002005
:100C9000D3680B400BB1012000E0002070470146F3
:100CA000C86880B2704701617047416170470AB1FE
:100CB000016100E041617047C16070474FF48032CC
:100CC0000A4382618161826182698269704702465A
:100CD0000020434B18684FF68073184040EA02101A
:100CE00008433F4B186070473E49C8617047F0B5F4
:100CF0000A46002300240021002500F00046B6F13A
:100D0000004F02D1364EF16901E0354E7168C0F3F3
:100D1000034583B200F44016B6F5401F08D121F018
:100D200070612F4E766826F070662D4F7E6012E05F
:100D300000F48016B6F5801F06D1032606FA05F4E6
:100D4000A14341F0706106E0460D360103FA06F654
:100D5000B14341F0706122B1460D360103FA06F647
:100D6000314300F00046B6F1004F02D11C4EF16154
:100D700001E01B4E7160F0BD30B500228B071C0FE7
:100D80000F2303FA04F2164B08338C1053F8243067
:100D90009343134C08348D1044F8253023468C10AF
:100DA00053F824308C07240F00FA04F423430C4C2E
:100DB00008348D1044F8253030BD0A49DC31086014
:100DC0007047000000080140000C01400010014085
:100DD0000014014000180140001C014000200140A7
:100DE000000001400000204210B50446FB48844248
:100DF00009D101218803FFF791FD00214FF48040C4
:100E0000FFF78CFD32E0F648844209D10121480405
:100E1000FFF791FD00214FF40030FFF78CFD25E036
:100E2000F048844209D101218804FFF784FD0021A4
:100E30004FF48020FFF77FFD18E0EB48844209D192
:100E40000121C804FFF777FD00214FF40020FFF7D0
:100E500072FD0BE0E548844208D101210805FFF747
:100E60006AFD00214FF48010FFF765FD10BD2DE9EC
:100E7000F04786B005460E460024A24600BFA146B4
:100E80000027B08900B100BF2F462C8A4CF6FF70B6
:100E90000440F08804432C82AC894EF6F3100440E1
:100EA000B08831890843718908430443AC81AC8A16
:100EB0004FF6FF400440B0890443AC8201A8FFF71D
:100EC000A6FCC648874202D1DDF810A001E0DDF89B
:100ED0000CA0A88900F4004040B10AEBCA0000EB66
:100EE0000A1031684900B0FBF1F807E00AEBCA00CC
:100EF00000EB0A1031688900B0FBF1F86420B8FB00
:100F0000F0F004012009642101FB1089A88900F494
:100F1000004040B1322000EBC900B0FBF1F000F01E
:100F20000700044308E0322000EB09106421B0FB05
:100F3000F1F000F00F0004432C8106B0BDE8F0870B
:100F40004FF41651016000218180C18001810C2184
:100F5000418100218181704710B502460020108A2E
:100F60004FF2FF0318400B884C8823438C8823439F
:100F7000CC8823431843108210BD0021018041809A
:100F80008180C180704721B1828942F40052828100
:100F900004E082894DF6FF731A4082817047F0B5F4
:100FA0000346002400260025002040F66A17B942B7
:100FB00000D100BF1846C1F3421401F01F060127FB
:100FC00007FA06F5012C01D10C3004E0022C01D106
:100FD000103000E014301AB107682F43076002E0B8
:100FE0000768AF430760F0BD1AB1838A0B43838261
:100FF00002E0838A8B4383827047028A4FF6F07344
:101000001A400282028A0A430282704782894FF2A2
:10101000FF731A40828182890A438281704721B11D
:10102000828942F00202828104E082894FF6FD73D8
:101030001A4082817047028A4FF6DF731A4002829B
:10104000028A0A430282704721B1028A42F4804236
:10105000028204E0028A4BF6FF731A400282704754
:10106000C1F308028280704701468888C0F30800F7
:101070007047818941F0010181817047028BD2B2B2
:101080000283028B42EA012202837047028B02F440
:101090007F420283028B0A430283704721B1828A16
:1010A00042F02002828204E0828A4FF6DF731A4007
:1010B0008282704721B1828A42F01002828204E06B
:1010C000828A4FF6EF731A408282704721B1828A7A
:1010D00042F00802828204E0828A4FF6F7731A40D7
:1010E0008282704721B1828942F40042828103E00A
:1010F0008289C2F30E028281704721B1828A42F452
:101100000062828204E0828A4FF2FF731A40828278
:101110007047828A4FF6FB731A408282828A0A43A2
:101120008282704721B1828A42F00202828204E008
:10113000828A4FF6FD731A40828270470246002071
:10114000B1F5007F00D100BF13880B400BB1012027
:1011500000E00020704701F40072B2F5007F00D17A
:1011600000BFCA430280704770B5024600240023C6
:101170000025002040F66A16B14200D100BFC1F33D
:10118000421501F01F03012606FA03F3012D02D1D7
:101190009689334006E0022D02D1168A334001E0E1
:1011A000968A33400C12012606FA04F4168834405D
:1011B00013B10CB1012000E0002070BD10B5002279
:1011C000002340F66A14A14200D100BF0A12012494
:1011D0009440A3B2DC43048010BD000000380140FD
:1011E0000044004000480040004C004000500040D7
:1011F00010B50446FE48844208D10121C014FFF70F
:101200008DFB0021E014FFF789FBC4E0B4F1804FAF
:1012100008D101210846FFF78EFB00210120FFF7CE
:101220008AFBB8E0F348844208D101210220FFF78D
:1012300082FB00210220FFF77EFBACE0EE488442F7
:1012400008D101210420FFF776FB00210420FFF7DD
:1012500072FBA0E0E948844208D101210820FFF791
:101260006AFB00210820FFF766FB94E0E448844213
:1012700008D101211020FFF75EFB00211020FFF7AD
:101280005AFB88E0DF48844208D101212020FFF783
:1012900052FB00212020FFF74EFB7CE0DA4884421D
:1012A00008D101214014FFF739FB00216014FFF73A
:1012B00035FB70E0D548844209D10121C804FFF70D
:1012C0002DFB00214FF40020FFF728FB63E0D048FE
:1012D000844209D101210805FFF720FB00214FF4CA
:1012E0008010FFF71BFB56E0CA48844209D1012158
:1012F0004805FFF713FB00214FF40010FFF70EFB2A
:1013000049E0C548844208D101214020FFF713FB82
:1013100000214020FFF70FFB3DE0C048844208D188
:1013200001218020FFF707FB00218020FFF703FB4E
:1013300031E0BB48844208D101218015FFF7FBFA58
:101340000021A015FFF7F7FA25E0B648844209D13D
:1013500001210804FFF7E2FA00214FF48030FFF783
:10136000DDFA18E0B048844209D101214804FFF7B2
:10137000D5FA00214FF40030FFF7D0FA0BE0AB486C
:10138000844208D101218804FFF7C8FA00214FF4F4
:101390008020FFF7C3FA10BD00220288944B9842C8
:1013A0000ED0994B98420BD0B0F1804F08D0914BA2
:1013B000984205D0904B984202D0904B984204D16D
:1013C0004FF68F731A404B881A438D4B984207D0C3
:1013D0008C4B984204D04FF6FF431A40CB881A43F7
:1013E00002808B8883850B880385814B98420BD0C4
:1013F000854B984208D08B4B984205D08A4B984237
:1014000002D08A4B984201D10B7A03860123838252
:10141000704770B5002400220023058C4FF6FE763D
:1014200035400584028C8388048B4FF68F752C40E1
:10143000B51E2C400D882C43751E2A400D892A4369
:101440004D882A436A4DA8420BD06F4DA84208D060
:10145000744DA84205D0744DA84202D0734DA842E5
:1014600013D14FF6F7752A404D892A434FF6FB7585
:101470002A408D882A434FF6FF652B404FF6FF55D3
:101480002B408D892B43CD892B4383800483CD88CA
:101490008586028470BD70B5002400220023058C6F
:1014A0004FF6EF7635400584028C8388048B48F62E
:1014B000FF752C404FF6FF452C400D884FF6FF7608
:1014C00006EA05252C434FF6DF752A400D8906EA0A
:1014D00005152A434D8806EA05152A43444DA842BE
:1014E00002D0494DA8421DD14FF67F752A404D8943
:1014F0004FF6FF7606EA05152A434FF6BF752A40D8
:101500008D8806EA05152A434FF6FF352B404FF22A
:10151000FF752B408D8906EA85052B43CD8906EAA8
:1015200085052B4383800483CD880587028470BDA5
:1015300070B5002400220023058C4FF6FF6635406D
:101540000584028C8388848B4FF68F752C404FF670
:10155000FC752C400D882C434FF6FF552A400D8911
:101560004FF6FF7606EA05252A434D8806EA05254B
:101570002A431F4DA84202D0234DA8421DD14FF24D
:10158000FF752A404D894FF6FF7606EA05252A4366
:101590004FF6FF352A408D8806EA05252A434EF688
:1015A000FF752B404DF6FF752B408D8906EA05151A
:1015B0002B43CD8906EA05152B4383808483CD8890
:1015C0008587028470BD70B5002200230024058C3D
:1015D0004EF6FF7635400584038C8488828B48F66E
:1015E000FF752A404FF6FF452A400D8820E0000095
:1015F000002C01400004004000080040000C0040A6
:10160000001000400014004000340140004C014034
:10161000005001400054014000180040001C0040F0
:1016200000200040004001400044014000480140CB
:101630004FF6FF7606EA05252A434DF6FF752B4047
:101640000D8906EA05352B434D8806EA05352B43FF
:10165000FA4DA84202D0FA4DA84208D14BF6FF75C8
:101660002C408D894FF6FF7606EA85152C43848041
:101670008283CD88A0F84050038470BD828B4FF2E6
:10168000FF331A408283828B4FF6FF7303EA0123F4
:101690001A4382837047F0B50C461546002200219C
:1016A0000026078C4EF6FF7C07EA0C070784828B26
:1016B000018C4FF6FF7707EA043640F6FF473A40C1
:1016C0004FF6FF7707EA05273A434FF6FF7707EA19
:1016D00003373A43D94FB8420ED0D94FB8420BD056
:1016E000B0F1804F08D0D74FB84205D0D64FB8429E
:1016F00002D0D64FB84206D14DF6FF77394046F4B6
:101700008057394305E047F6FF57394044F4805786
:10171000394382830184F0BD828B4FF6F3731A4004
:101720008283828B0A4382837047F0B50C4615464C
:10173000002200210026078C4FF6FF6C07EA0C07F9
:101740000784828B018C4FF6FF7707EA04264FF659
:101750000C773A404FF6FF7707EA03172F433A43D7
:10176000B64FB8420ED0B64FB8420BD0B0F1804F52
:1017700008D0B44FB84205D0B34FB84202D0B34FEF
:10178000B84206D14FF6FF57394046F480773943C7
:1017900005E04FF2FF57394044F4807739438283A4
:1017A0000184F0BD028B4FF2FF331A400283028B9B
:1017B0004FF6FF7303EA01231A4302837047F0B523
:1017C0000C461546002200210026078C4FF6EF7CC0
:1017D00007EA0C070784028B018C4FF6FF7707EAB4
:1017E000041640F6FF473A404FF6FF7707EA033703
:1017F0003A434FF6FF7707EA05273A438F4FB8423F
:101800000ED08F4FB8420BD0B0F1804F08D08D4F23
:10181000B84205D08C4FB84202D08C4FB84206D1A6
:101820004FF6DF77394046F01007394305E04FF6B1
:101830005F77394044F01007394302830184F0BDDB
:10184000028B4FF6F3731A400283028B0A43028322
:101850007047F0B50C46154600220021068C4FF665
:10186000FE773E400684028B018C4FF60C763240A8
:101870007E1C06EA03162E433243704EB0420ED051
:101880006F4EB0420BD0B0F1804F08D06D4EB042D9
:1018900005D06D4EB04202D06C4EB04206D14FF62C
:1018A000FD76314044F00106314305E04FF6F57610
:1018B000314044F00106314302830184F0BD70B52C
:1018C00005460C465D4885420ED05D4885420BD0EA
:1018D000B5F1804F08D05B48854205D05A48854213
:1018E00002D05A48854200D100E000BF208850B99C
:1018F0002389A28861882846FFF7ABFFE188284644
:10190000FFF79EFF25E0208804280AD12389A288BA
:1019100061882846FFF753FFE1882846FFF742FF1A
:1019200017E0208808280AD12389A28861882846E0
:10193000FFF7FBFEE1882846FFF7EEFE09E023896A
:10194000A28861882846FFF7A6FEE1882846FFF7AF
:1019500095FE70BD2DE9F04105460C460026012795
:10196000608808B9022600E00026A088012801D17D
:10197000022700E001272088A0B92389A288618876
:101980002846FFF766FFE1882846FFF759FF2389BD
:101990003A4631462846FFF712FFE1882846FFF70E
:1019A00001FF13E02389A28861882846FFF707FF1B
:1019B000E1882846FFF7F6FE23893A463146284655
:1019C000FFF747FFE1882846FFF73AFFBDE8F081BF
:1019D0000A884B881A438B881A43CB881A430B8991
:1019E0001A434B891A438B891A43A0F84420704745
:1019F0004FF6FF71818000210180C180418001721A
:101A000070470021018041808180C1800181418136
:101A10008181C18170470021018041800121818045
:101A20000021C180018170470021018041808180B7
:101A3000C18001814181818170470000002C0140FB
:101A4000003401400004004000080040000C004049
:101A500021B1028842F00102028004E002884FF6C0
:101A6000FE731A400280704731B1B0F8442042F44E
:101A70000042A0F8442005E0B0F84420C2F30E0272
:101A8000A0F8442070471AB183890B43838102E098
:101A900083898B43838170478182704741EA0203C7
:101AA000A0F8483070471AB183890B43838102E064
:101AB00083898B438381704701894FF6F872114007
:101AC000018170470A46002101894FF68F73194042
:101AD00011430181704730B504460D462946204622
:101AE000FFF7F0FF208940F00700208130BD2DE98D
:101AF000F04104460D4616461F46602D06D13B4672
:101B0000012231462046FFF75AFE05E03B460122FE
:101B100031462046FFF79DFE29462046FFF7D2FFBB
:101B2000208940F007002081BDE8F08130B50C46E7
:101B300000210189C9B24FF6FF7505EA0325154357
:101B400025432943018130BD2DE9F04105460E466C
:101B500017469846002443463A4631462846FFF742
:101B6000E5FF2C894FF6F870044044F007044FF667
:101B70008F70044044F070042C81BDE8F081F0B512
:101B800004460D4616461F463B4632462946204629
:101B9000FFF7CCFF208940F480402081F0BD018513
:101BA000828270470A46002101884FF68F731940E0
:101BB000114301807047F0B50C4615461E460021C2
:101BC000002200230189028B038C4FF6F8773940FD
:101BD00021434FF6FC473A4040F201173A434FF693
:101BE000DD773B404FF6FF7707EA06172F433B436D
:101BF000018102830384F0BD0A460021018B4FF668
:101C00008F7319401143018370470A460021018BED
:101C100048F6FF7319404FF6FF7303EA0223194396
:101C2000018370470A460021818B4FF68F7319405C
:101C30001143818370470A460021818B48F6FF7368
:101C400019404FF6FF7303EA02231943818370475B
:101C500021B1028842F08002028004E002884FF63F
:101C60007F731A400280704721B1828842F00402DB
:101C7000828004E082884FF6FB731A4082807047AE
:101C800021B1828842F00802828004E082884FF607
:101C9000F7731A408280704721B1828842F00102B6
:101CA000828004E082884FF6FE731A40828070477B
:101CB0000A460021018B4FF6F77319401143018347
:101CC00070470A460021018B4FF2FF7319404FF60F
:101CD000FF7303EA02231943018370470A46002178
:101CE000818B4FF6F77319401143818370470A4681
:101CF0000021818B4FF2FF7319404FF6FF7303EA07
:101D000002231943818370470A460021018B4FF655
:101D1000FB7319401143018370470A460021018B70
:101D20004FF6FF3319404FF6FF7303EA02231943BE
:101D3000018370470A460021818B4FF6FB731940DF
:101D40001143818370470A460021818B4FF6FF3390
:101D500019404FF6FF7303EA02231943818370474A
:101D60000A460021018B4FF67F731940114301830E
:101D700070470A460021018BC1F30E014FF6FF7335
:101D800003EA02231943018370470A460021818B2D
:101D90004FF67F7319401143818370470A46002133
:101DA000818BC1F30E014FF6FF7303EA022319433F
:101DB000818370470A460021018C4FF6FD7319405C
:101DC0001143018470470A460021018C4FF6F773D6
:101DD00019401143018470470A460021018C4FF6D7
:101DE000DF7319404FF6FF7303EA021319430184AE
:101DF00070470A460021018C4FF67F7319404FF659
:101E0000FF7303EA02131943018470470A46002155
:101E1000018C4FF6FF5319404FF6FF7303EA02237C
:101E20001943018470470A460021018C4FF2FF7369
:101E300019404FF6FF7303EA0223194301847047E8
:101E40000A460021018C4DF6FF7319404FF6FF73CF
:101E500003EA023319430184704730B5002301249B
:101E60008C40A3B2048C9C430484048C02FA01F5D8
:101E7000ADB22C43048430BD30B5002304248C4023
:101E8000A3B2048C9C430484048C02FA01F5ADB225
:101E90002C43048430BD70B503460020002418464E
:101EA000183001258D40ACB21D8CA5431D8409B1AD
:101EB000082909D100EB6100056825F0700505606F
:101EC0000568154305600EE00D1FC5F34E05284457
:101ED000056825F4E045056005684FF6FF7606EADB
:101EE00002263543056070BD21B1028842F002022E
:101EF000028004E002884FF6FD731A4002807047AA
:101F000021B1028842F00402028004E002884FF608
:101F1000FB731A400280704721B1828842F0800230
:101F2000828004E082884FF67F731A408280704777
:101F300002884FF6F7731A40028002880A43028033
:101F4000704782884FF68F731A40828082880A43D6
:101F50008280704702894FF6F8731A400281028925
:101F60000A430281704702894FF67F731A4002814B
:101F700002890A43028170478184704781857047D6
:101F8000818670470187704781877047A0F84010AD
:101F9000704702884FF6FF431A40028002880A43C6
:101FA000028070470146888E70470146088F70474F
:101FB0000146888F70470146B1F8400070470146DE
:101FC000888C70470146088D704702460020138AAE
:101FD0000B400BB1012000E000207047CA43028291
:101FE000704730B50246002000230024158A05EA18
:101FF0000103958905EA010413B10CB1012000E049
:10200000002030BDCA4302827047000010B504466C
:10201000FA48844208D101214015FEF77FFC0021D7
:102020006015FEF77BFC17E0F548844208D10121DA
:102030000015FEF773FC00212015FEF76FFC0BE086
:10204000F048844208D10121C803FEF767FC002153
:102050004FF40040FEF762FC10BD30B50246002090
:1020600000235068E84C20400D790C6844EA0524B0
:10207000204350609068E54C2040D1E902542C4345
:102080004D7944EA450420439060D06A20F4700002
:102090000C7C641EE4B2234340EA0350D06230BD9E
:1020A00000210160017141718160C16001210174F1
:1020B000704721B1826842F00102826003E08268C9
:1020C00022F001028260704721B1826842F480727E
:1020D000826003E0826822F480728260704710B5EB
:1020E0000023CBB21AB144681C43446002E0446848
:1020F0009C43446010BD816841F0080181607047D5
:10210000014600208A6802F008020AB1012000E0BE
:1021100000207047816841F00401816070470146EA
:1021200000208A6802F004020AB1012000E00020C9
:10213000704721B1826842F4A002826003E08268A5
:1021400022F4A00282607047014600208A6802F4EF
:1021500080020AB1012000E00020704710B50A4655
:1021600000210023416821F46041531E41EA4331BC
:10217000416010BD21B1426842F40062426003E058
:10218000426822F4006242607047F0B504460D4692
:1021900000200021092D11DDE068A5F10A0606EBFB
:1021A0004607072606FA07F18843A5F10A0606EB5B
:1021B000460603FA06F10843E0600CE0206905EBEF
:1021C0004507072606FA07F1884305EB450603FA9B
:1021D00006F108432061072A0FDA606B561E06EBF2
:1021E00086071F2606FA07F18843561E06EB860669
:1021F00005FA06F10843606322E00D2A0FDA206B2E
:10220000D61F06EB86071F2606FA07F18843D61F5E
:1022100006EB860605FA06F10843206310E0E06A43
:10222000A2F10D0606EB86071F2606FA07F1884382
:10223000A2F10D0606EB860605FA06F10843E062F8
:10224000F0BD21B1826842F48012826003E08268AE
:1022500022F48012826070470146C86C80B27047D9
:1022600066484C300068704721B1426842F4806291
:10227000426003E0426822F480624260704721B10C
:10228000426842F48052426003E0426822F4805285
:10229000426070470A460021816821F4E041114301
:1022A0008160704721B1826842F40042826003E09D
:1022B000826822F400428260704721B1826842F451
:1022C0000212826003E0826822F402128260704788
:1022D000014600208A6802F400120AB1012000E0E1
:1022E00000207047F0B50446154600200022002665
:1022F000092911DDE068A1F10A0707EB470C072760
:1023000007FA0CF29043A1F10A0707EB470703FA1B
:1023100007F21043E0600CE0206901EB410C072755
:1023200007FA0CF2904301EB410703FA07F210435E
:102330002061A06BC0F30156EF1C06F1010CA7EB66
:102340000C0707EB870C1F2707FA0CF29043EF1CD2
:1023500006F1010CA7EB0C0707EB870701FA07F260
:102360001043A063F0BD10B50A4600210023816B25
:1023700021F44011531E41EA0351816310BD08B599
:10238000002300930090009B0B440093009B1A6075
:1023900008BD08B5024600200090009201F1280017
:1023A000009B184400900098006880B208BD0A465F
:1023B00000214168164B194011434160704741624A
:1023C000826270470A460021416821F01F011143D3
:1023D0004160704740B109490831096841F4000182
:1023E000064A0832116007E004490831096821F4FF
:1023F0000001024A083211607047000000240140C9
:1024000000280140003C0140FFFEF0FFFDF7F1FF16
:10241000FFFD3FFF0246002013680B400BB1012077
:1024200000E000207047CA430260704770B5024662
:102430000020002300240B125568CEB205EA0604E2
:1024400015681D4015B10CB1012000E0002070BDE1
:1024500000220A12D34303607047000001684FF660
:10246000FE72114001600021016041608160C16025
:102470008D49884208D18C490839496841F00F01DB
:10248000894A083A51608AE087491431884208D164
:1024900085490839496841F0F001834A083A51609A
:1024A0007DE081492831884208D17F49083949684F
:1024B00041F470617C4A083A516070E07A493C31DD
:1024C000884208D178490839496841F47041764A10
:1024D000083A516063E074495031884208D172492A
:1024E0000839496841F470216F4A083A516056E052
:1024F0006D496431884208D16B490839496841F413
:102500007001694A083A516049E067497831884268
:1025100008D165490839496841F07061624A083A52
:1025200051603CE06149884206D1011F096841F0D1
:102530000F01021F116032E05C491431884208D15A
:102540005A49091F096841F0F001584A121F1160E9
:1025500025E056492831884208D15449091F0968A5
:1025600041F47061514A121F116018E04F493C312B
:10257000884208D14D49091F096841F470414B4A0E
:10258000121F11600BE049495031884207D1474979
:10259000091F096841F47021444A121F11607047F5
:1025A00010B50022026847F6F0739A430C6A8B68F4
:1025B00023430C6923434C6923438C692343CC692F
:1025C00023434C6A23438C6A23431A430260CB683B
:1025D00043600B6883604B68C36010BD00210160DD
:1025E00041608160C160016141618161C1610162DD
:1025F00041628162704721B1026842F001020260CB
:1026000004E002684FF6FE731A40026070471AB188
:1026100003680B43036002E003688B430360704769
:10262000416070470146486880B27047014600200B
:10263000002201F080531BB11C4B083B1A6802E0DA
:10264000194B083B1A6802EA01030BB1012000E0B4
:102650000020704700F0805119B11449091F08602B
:1026600002E0114908394860704701460020002205
:1026700001F080531BB10D4B083B1A6802E00A4B76
:10268000083B1A6802EA01030BB1012000E00020B8
:10269000704700F0805119B10449091F086002E039
:1026A00001490839486070470800024008040240A8
:1026B0004FF0E020006920F004004FF0E0210861B5
:1026C0000920274908700846007800EB4001C1EB5B
:1026D000C0104FF6FF7101EAC00022490880704720
:1026E000002120F07F401E4A127842434FF0E02341
:1026F0005A6100229A6101221A6100BF4FF0E02264
:10270000116901F001021AB101F48032002AF5D0FA
:1027100000224FF0E0231A619A617047002100B94E
:10272000704720F07F400F4A128842434FF0E02369
:102730005A6100229A6101221A6100BF4FF0E02223
:10274000116901F001021AB101F48032002AF5D0BA
:1027500000224FF0E0231A619A6100BFE0E7000019
:10276000280000202A00002010B586B00446012170
:102770008803FEF7B9F801210420FEF7B5F8182008
:102780008DF817004FF40070ADF8140003208DF899
:10279000160005A9C348FEF7D9F948208DF817009F
:1027A0004FF48060ADF8140003208DF8160005A9E1
:1027B000BC48FEF7CBF901940020ADF810000C20C6
:1027C000ADF80E000020ADF80C00ADF80A00ADF831
:1027D000080001A9B448FEF74AFB012240F2255146
:1027E000B148FEF7DCFB4FF4A060FEF7E1F82520CE
:1027F0008DF8000001208DF803008DF801008DF8A0
:1028000002006846FEF7D9F80121A748FEF7BBFB96
:1028100006B010BD10B586B0044601210420FEF7B5
:1028200063F801214804FEF76CF818208DF81700B2
:102830000420ADF8140003208DF8160005A999486E
:10284000FEF784F904208DF817000820ADF8140075
:1028500003208DF8160005A99248FEF777F9019438
:102860000020ADF810000C20ADF80E000020ADF8EF
:102870000C00ADF80A00ADF8080001A98B48FEF77E
:10288000F6FA01218948FEF77EFB012240F225512C
:102890008648FEF784FB26208DF8000001208DF885
:1028A000030000208DF801008DF802006846FEF755
:1028B00084F806B010BD10B586B004460121880426
:1028C000FEF71FF801210820FEF70EF818208DF8FA
:1028D00017004FF48060ADF8140003208DF8160047
:1028E00005A97348FEF732F948208DF817004FF418
:1028F0000060ADF8140003208DF8160005A96C489F
:10290000FEF724F901940020ADF810000C20ADF87A
:102910000E000020ADF80C00ADF80A00ADF808007C
:1029200001A96448FEF7A3FA012240F2255161484B
:10293000FEF735FB4FF4A060FEF73AF827208DF83C
:10294000000001208DF803008DF801008DF80200D1
:102950006846FEF732F801215648FEF714FB06B030
:1029600010BD10B5044621465248FEF779FB00BF62
:1029700080215048FEF7E2FB0028F9D010BD70B569
:102980000446002503E0605DFFF7EBFF6D1C605D12
:102990000028F8D170BD2DE9F04107460C461546D8
:1029A00000260DE014F8011B3846FEF759FB00BF66
:1029B00040213846FEF7C2FB0028F9D0701C86B2D1
:1029C000AE42EFDBBDE8F0810FB430B5ADF2044D9F
:1029D000054601AC0DF5836000904FF4806101A8BD
:1029E000009BDDF8142402F023F9002000900BE096
:1029F00014F8011B2846FEF733FB00BF4021284690
:102A0000FEF79CFB0028F9D020780028F0D10DF2C9
:102A1000044D30BC5DF814FB10B540F2255125483B
:102A2000FEF7A2FB01283CD12248FEF71DFBC4B2F1
:102A30002148007858B9402C2DD12048007850BB4F
:102A400001201D49087000201D49087023E01A4824
:102A5000007801280FD10D2C03D1022016490870EF
:102A600019E0184816490978445415480078401C64
:102A7000134908700FE01048007802280BD10A2C87
:102A800009D100200C4908700E490D4A127888546B
:102A900001200A49087040F225510648FEF78EFBD6
:102AA00000BF10BD00080140003801400044004054
:102AB000000C0140004800402D0000202C000020A8
:102AC0002E000020840100202DE9F05F81468A4617
:102AD00090461C46DDF828B05146484602F002FAFE
:102AE00007461FB900202070BDE8F09F504602F055
:102AF0002FFA0744B8F1000F08D04146484602F0CB
:102B0000F1F905463DB900202070EDE7484602F096
:102B10001FFA00EB0905EE1B002E10DDABF10100E2
:102B2000B04201DD304601E0ABF10100064632461D
:102B30003946204602F059FA0020A05501E0002055
:102B4000207000BFD0E738B505460C460A20234662
:102B500093A295A100902846FFF7B6FF0A2004F142
:102B60000A0392A28EA100902846FFF7ADFF0A202B
:102B700004F114038FA28DA100902846FFF7A4FF53
:102B80000A2004F11E038DA28AA100902846FFF7B7
:102B90009BFF142004F128038AA288A100902846F4
:102BA000FFF792FF142004F13C0389A285A1009055
:102BB0002846FFF789FF142004F1500386A284A160
:102BC00000902846FFF780FF142004F1640384A2DC
:102BD00081A100902846FFF777FF142004F17803C5
:102BE00081A27FA100902846FFF76EFF142004F118
:102BF0008C0300227CA100902846FFF765FF38BDBA
:102C00007FB505460C4604F1280004F11E0104F1CD
:102C1000140204F10A03CDE90032CDE9021074492F
:102C200001EBC51023466A1C72A102F01BF87FBDA0
:102C30002DE9F05F06460D460027B846B946BA466C
:102C4000BB4600245CE077B904EB840105EB41113D
:102C500001F13C0073A102F0F3F920B974A17848A6
:102C600002F095F90127B8F1000F0FD104EB8401B0
:102C700005EB411101F1500072A102F0E1F928B910
:102C800073A16F4802F083F94FF00108B9F1000F0A
:102C90000FD104EB840105EB411101F1640070A137
:102CA00002F0CEF928B971A1654802F070F94FF031
:102CB0000109BAF1000F0FD104EB840105EB4111BA
:102CC00001F178006DA102F0BBF928B96FA15C4851
:102CD00002F05DF94FF0010ABBF1000F0FD104EBD8
:102CE000840105EB411101F18C006DA102F0A8F9FE
:102CF00028B96EA1524802F04AF94FF0010B641C4A
:102D0000B442A0DBBDE8F09F70B504460D462B46EB
:102D100022466AA16C4801F0A5FF6B48FFF72FFE21
:102D200069496A48FFF750FE70BD70B504460D460C
:102D30002B46224666A1644801F094FF6248FFF7E3
:102D40001EFE61496148FFF73FFE70BD2DE9F04767
:102D500006460C462146304602F0C4F80546EDB161
:102D6000304602F0F5F88146204602F0F1F8A9EB72
:102D70000007204602F0ECF800EB05083A46414611
:102D8000564802F032F9304602F0E2F80746204693
:102D900002F0DEF8381A514900220A54BDE8F087E3
:102DA00078696E62696500006167650068696768D7
:102DB00074000000776569676874000067756F6D5F
:102DC000696E67006368616E67776569000000007F
:102DD00074616E6E69616F007875657A686900006C
:102DE00078696E7875650000787565796100000016
:102DF00000340020B5DA2564B8F6C8CB2573CBEAD9
:102E0000D0D4B1F025732CC9EDB8DF2573636DCC38
:102E1000E5D6D825736B672CB9FDC3F4D4B42573FC
:102E200000000000D3D0B3A6CEB8BCB2B2A100005F
:102E3000D3D0C8CBB3A6CEB8BCB2B2A100000000BC
:102E400080390020BBBCCCC7C4F2B2A10000000096
:102E5000D3D0C8CBBBBCCCC7C4F2B2A10000000029
:102E6000BBBCB8DFD1AAD6AC00000000D3D0C8CB21
:102E7000BBBCB8DFD1AAD6AC00000000BBBCD0C43C
:102E8000D1AAB9DCBCB2B2A100000000D3D0C8CB3B
:102E9000BBBCD0C4D1AAB9DCBCB2B2A10000000056
:102EA000BBBCB8DFD1AAD1B900000000D3D0C8CBD9
:102EB000BBBCB8DFD1AAD1B90000000025733D2208
:102EC000256422FFFFFF0000840500200038014038
:102ED00025733D22257322FFFFFF0000003A0020EA
:102EE0001FB501210846FDF70CFD4FF08040FEF7AD
:102EF000E3FD0020ADF80A00ADF8060042F20F70C5
:102F0000ADF8080041F61F40ADF8040000208DF830
:102F10000C0001A94FF08040FEF73EFA012188071E
:102F2000FFF75CF8012211469007FEF7ACFD4FF465
:102F3000A060FDF73DFD1C208DF8000001208DF8FC
:102F4000030002208DF8010001208DF80200684680
:102F5000FDF733FD01218807FEF77AFD1FBD000054
:102F600000B591B001214802FDF7BEFC012104200B
:102F7000FDF7BAFC01210846FDF7A9FC4FF400401B
:102F8000FDF716FC00208DF843000320ADF840004B
:102F90008DF8420010A94C48FDF7D8FD0523012209
:102FA00000214A48FFF7F1F8052302220121474892
:102FB000FFF7EBF800200B900E904FF460200D907F
:102FC00001208DF831008DF8300002208DF83C0092
:102FD0000BA93E48FFF741F83C484C300090801563
:102FE0000690002004903A4801904FF480600790CA
:102FF000802005900020029002200390202008905D
:1030000000200A904FF48050099069463148FFF73C
:10301000C7FA01212F48FFF7EEFA01212B48FFF7ED
:1030200053F801212948FFF744F82848FFF763F8CF
:1030300000BF2648FFF764F80128FAD02348FFF7BD
:1030400069F800BF2148FFF76AF80128FAD001218A
:103050001E48FFF76EF811B000BD014600220020A7
:1030600000BF05E01A4B33F811301844531CDAB294
:10307000872AF7DB8723B0FBF3F070472DE9F84F81
:10308000044640F6FF75002600272046FFF7E5FFBF
:103090000646284603F090FC8346304603F08CFC3D
:1030A0005946009003F0AAFB82464FF07E5103F090
:1030B0007BFD8146084903F0ABFC804603F060FCD1
:1030C00007463846BDE8F88F00080140002401405B
:1030D00030000020080002400000C84238B5044615
:1030E0004CB14020ADF8000003208DF80200102004
:1030F0008DF8030005E04020ADF8000004208DF8B5
:10310000030069465F48FDF721FD38BD10B5012079
:10311000FFF7E4FF40215B48FDF7C7FD1420FFF7F0
:10312000FDFA40215748FDF7BEFD0D20FFF7D8FA04
:1031300010BD10B500240020FFF7D0FF04E0601C94
:10314000C4B20120FFF7CCFA40214E48FDF791FDB3
:1031500008B1642CF3DB642C01DB012010BD0024DA
:1031600004E0601CC4B20120FFF7BAFA40214548D0
:10317000FDF77FFD08B9642CF3DB642C01DB012033
:10318000ECE70020EAE710B5002404E0601CC4B2BC
:103190000120FFF7A5FA40213A48FDF76AFD08B182
:1031A000642CF3DB002404E0601CC4B20120FFF7B0
:1031B00097FA40213348FDF75CFD08B9642CF3DB36
:1031C0002820FFF78DFA40212E48FDF752FD08B167
:1031D000012010BD0020FCE770B50024002506E0AA
:1031E0006006040EFFF7CFFF0443681CC5B2082D2C
:1031F000F6DB204670BD7CB505460E46FFF786FF20
:10320000FFF797FFF8B9002405E0FFF7E5FF0DF899
:103210000400601CC4B2052CF7DB9DF800009DF88B
:10322000011008449DF8021008449DF8031008445A
:103230009DF80410884208D19DF8000030709DF878
:103240000200287001E001207CBD0020FCE708B5E9
:1032500001210420FDF748FB4020ADF800001020BC
:103260008DF8030003208DF8020069460548FDF73C
:103270006DFC40210348FDF716FDFFF747FFFFF700
:1032800058FF08BD0008014010B54648007846497F
:103290000870464800784649087046480078464914
:1032A0000870464800784649087040493D48FFF795
:1032B000A2FF3C48017843A0FFF726FD6420FFF7FA
:1032C0002DFA3A48017843A0FFF71EFD0020FFF7D2
:1032D000D5FE444908700120FFF7D0FE424908702E
:1032E000404800784B2803DB00203249087016E084
:1032F0003C4800784B2807DA3A480078372803DB47
:1033000001202C4908700AE036480078372806DA90
:1033100034480078002802DB022026490870324831
:103320000078232803DB01202449087002E00020F4
:1033300022490870204800781E490978884202D145
:103340002A480078A0B91B48007820B928A129A0F4
:10335000FFF7EBFC0CE017480078012804D129A105
:1033600024A0FFF7E2FC03E027A122A0FFF7DDFC89
:103370001348007811490978884202D11B48007827
:1033800058B90E48007820B920A122A0FFF7CDFC43
:1033900003E024A11FA0FFF7C8FC01201349087017
:1033A00010BD000034000020360000203500002051
:1033B00037000020380000203A00002039000020AB
:1033C0003B0000206875616E6A696E672E74342E4A
:1033D000747874006875616E6A696E672E74352E34
:1033E000747874003C0000203D0000203E00002066
:1033F000D3C500006875616E6A696E672E74372EDA
:1034000074787400C1BC0000B2EE0000CEDEBBF0E8
:10341000D4D600006875616E6A696E672E74382EA6
:1034200074787400D3D0BBF0D4D6000008B54FF444
:103430008070ADF8000003208DF8020010208DF898
:1034400003006946FE48FDF781FB08BD10B5FFF794
:10345000EDFF0020FB490860FB49C1F8A0010420F2
:10346000FFF73EF90120F7490860F749C1F8A001CC
:103470000420FFF735F910BD08B54FF48070ADF8A2
:10348000000003208DF8020048208DF803006946F3
:10349000EB48FDF75BFB08BD10B50024FFF7ECFF20
:1034A0000120E849091D0860FFF71AF90120E649E3
:1034B000C1F89C01FFF714F907E0601CC4B2FA2CB4
:1034C00003DDFFF7C3FF012010BDDE487C38006834
:1034D0000028F2D1DB49086000BFF5E770B504466B
:1034E000FFF7A4FF0020D7490860002517E0E00996
:1034F000D449091D08606006040E0220FFF7F0F8A9
:103500000120D149C1F89C010220FFF7E9F8002011
:10351000CC4908600220FFF7E3F8681CC5B2082D0B
:10352000E5DB70BD10B5FFF781FF0120C549091D1E
:103530000860C549C1F89C010420FFF7D1F80020BC
:10354000C049091D08600420FFF7CAF80020BE49E1
:10355000C1F89C0110BD70B505460C46FFF7E2FFAF
:10356000AE20FFF7BBFFFFF797FF00B111E0284641
:10357000FFF7B4FFFFF790FF00B10AE02046FFF726
:10358000ADFFFFF789FF00B103E0FFF75FFF012008
:1035900070BDFFF75BFF0020FAE710B50020A949D6
:1035A0000860FFF743FF0120A749C1F8A0010220EE
:1035B000FFF796F80120A34908600220FFF790F872
:1035C0000020A149C1F89C0110BD10B500209D4903
:1035D0000860FFF72BFF00209B49C1F8A0010220E3
:1035E000FFF77EF80120974908600220FFF778F87E
:1035F00000209549C1F89C0110BD70B50546002416
:10360000FFF73AFF002616E000208E4908600220EE
:10361000FFF766F801208C49C1F89C016006040E92
:1036200088487C38006808B1601CC4B20120FFF7EC
:1036300057F8701CC6B2082EE6DB15B9FFF7ADFFD0
:1036400001E0FFF7C2FF204670BD70B50446FFF7EA
:1036500069FFAE20FFF742FFFFF71EFF00B119E040
:103660002046FFF73BFFFFF717FF00B112E0FFF71F
:1036700059FFAF20FFF732FFFFF70EFF00B109E05F
:103680000020FFF7BAFF0546FFF787FFFFF7DEFED2
:10369000284670BDFFF7DAFE0020FAE72DE9F04773
:1036A00082460C46174600253E46FFF73BFFAE20FC
:1036B000FFF714FFFFF7F0FE00B13FE05046FFF7C1
:1036C0000DFFFFF7E9FE00B138E0FFF72BFFAF2059
:1036D000FFF704FFFFF7E0FE00B12FE029E0002034
:1036E000FFF78BFF8046FFF770FF0020FFF785FF95
:1036F0008146FFF76AFF49EA082024F825000020E8
:10370000FFF77BFF8046FFF760FF0020FFF775FFA4
:103710008146012E02D1FFF740FF01E0FFF755FF80
:1037200049EA082004EB85014880701EC6B2681C77
:10373000C5B2002ED3D1FFF789FE00BFFFF786FE8A
:10374000BDE8F08770B505460C460020FFF77DFF09
:103750000120FFF77AFFFFF7E5FEAE20FFF7BEFE80
:10376000FFF79AFE00B12AE02846FFF7B7FEFFF701
:1037700093FE00B123E0FFF7D5FEAF20FFF7AEFECA
:10378000FFF78AFE00B11AE00120FFF736FF207034
:103790000120FFF732FF60700120FFF72EFFA070BD
:1037A0000120FFF72AFFE0700120FFF726FF2071BC
:1037B0000020FFF722FF6071FFF748FE00BFFFF710
:1037C00045FE70BD10B540210920FFF7C4FE402121
:1037D0000920FFF7C0FE10BD08B501210820FDF744
:1037E00083F84FF4C070ADF8000010208DF803008E
:1037F00003208DF8020069461148FDF7A7F9012062
:10380000104908601049C1F8A00108BD08B50121A0
:103810000820FDF769F84FF40070ADF8000048206B
:103820008DF8030069460648FDF790F9FFF7D4FFCD
:10383000FFF7C8FFC0210220FFF78DFE002105E041
:10384000000C01409C812142008021420320FFF7AF
:1038500082FE00210420FFF77EFE00210520FFF7F5
:103860007AFE00210620FFF776FE0F210820FFF7E1
:1038700072FE03210920FFF76EFE27210A20FFF7C1
:103880006AFE24210C20FFF766FE24210D20FFF79D
:1038900062FE7F211020FFF75EFE08BD70B5064670
:1038A0000C461546FFF73EFE3046FFF717FEFFF7C2
:1038B000F3FD2046FFF712FEFFF7EEFD2846FFF767
:1038C0000DFEFFF7E9FDFFF7C1FD0A20FEF726FF19
:1038D00070BD70B504460D462A462146AE20FFF75E
:1038E000DDFF70BD70B504460D461646FFF71AFEA3
:1038F0002046FFF7F3FDFFF7CFFD2846FFF7EEFD6B
:10390000FFF7CAFDFFF70EFE44F00100FFF7E6FDEA
:10391000FFF7C2FD0020FFF770FE3070FFF796FD45
:1039200070BD70B504460D462A462146AE20FFF70D
:10393000D9FF70BD2DE9F0410746884614461D4663
:10394000FFF7F0FD3846FFF7C9FDFFF7A5FD40463C
:10395000FFF7C4FDFFF7A0FD47F00100FFF7BEFD34
:10396000FFF79AFD002605E00120FFF746FEA0556F
:10397000701CC6B2681EB042F6DC0020FFF73DFEA8
:10398000691E6054FFF762FD0A20FEF7C7FEBDE81E
:10399000F081FEB506460C4600203060206002A98A
:1039A000FFF7BFFF02A90120FFF7BBFF06236A460E
:1039B0000721AE20FFF7BEFF9DF800502D043068B0
:1039C000284430609DF801502D0230682844306052
:1039D0009DF802503068284430609DF803502D0453
:1039E0002068284420609DF804502D022068284457
:1039F00020609DF805502068284420603068C0F39E
:103A0000110030602068C0F311002060FEBD2DE978
:103A1000F04107460D461646FFF784FD3846FFF78E
:103A20005DFDFFF739FD002406E0285DFFF756FD38
:103A3000FFF732FD601CC4B2B442F6DBFFF706FDAF
:103A40000A20FEF76BFEBDE8F08130B50C4601227E
:103A500013E050F82230114605E04D1E50F8255075
:103A600040F82150491E002904DD4D1E50F8255014
:103A70009D42F2DC40F82130521CA242E9DB30BD0D
:103A8000F0B503461546012217E051F822401046D2
:103A900005E0461E51F8266041F82060401E0028CF
:103AA00008DD53F82470461E51F8266053F826604E
:103AB000B742EEDC41F82040521CAA42E5DBF0BDE3
:103AC0002DE9F04F05460C46924698462946504649
:103AD0002268FFF7D5FF4FF0FF3621E0D4F800B0A1
:103AE000701C2060771C18E055F82710701C10B966
:103AF0004FF0FF3001E055F82600A1EB0009C14569
:103B000003DCC8F10000814506DA55F82710226869
:103B1000501C206045F822107F1C5F45E4DB761CBA
:103B20002068B042DADC28462168FFF78EFFBDE846
:103B3000F08FF0B505461C46059E012000270F605A
:103B400030E052F82070B7422BDD52F820C0471EFB
:103B500052F82770BC4524DD012300E05B1CC71828
:103B6000A74207DA52F8207000EB030C52F82CC081
:103B70006745F3D052F8207000EB030C52F82CC0CC
:103B800067450CDD0F680F2F09DAD1F800C00CF182
:103B900001070F6045F82C005F1C384402E0184410
:103BA00000E0401C671E8742CBDCF0BD2DE9F847E2
:103BB00005460C4616461F46DDE90A9ADDF82480C4
:103BC0003B46324621462846CDF80080FFF7B1FF3C
:103BD0004B46324621462846FFF772FF2068504583
:103BE00001DA206800E050462060BDE8F8872DE942
:103BF000FF4FC6B08846994600204590002406E055
:103C0000469850F82410459808444590641C444553
:103C1000F6DB4598B0FBF8F04590002408E04698A4
:103C200050F824104598081AFE4941F82400641CF5
:103C30004445F4DB002417E0FA4850F8241002460B
:103C4000601C52F820000144A01C52F820000144DE
:103C5000E01C52F820000F183846F91707EB917155
:103C6000891042F82410641CB4F5F87FE4DB0024CA
:103C70000AE0EC49601C51F8200051F82410401A69
:103C8000E94941F82400641CB4F5F77FF1DD002414
:103C90000EE0E54951F824200B46611C53F8211031
:103CA000501800EBD07149101A4642F82410641CD9
:103CB000B4F5F77FEDDB00251BE0002043902C4698
:103CC0000BE0D94850F82410601BD84A32F8102075
:103CD000439801FB12004390641C681D8442F0DB92
:103CE00040F27A41439890FBF1F0CF4941F825002A
:103CF0006D1CB5F5F47FE0DD00204190002410E05C
:103D0000C94850F82400002803DDC74850F82400B3
:103D100003E0C54850F824004042419908444190CE
:103D2000641CB4F5F77FEBDD40F2EF11419890FB96
:103D3000F1F0419005210822419840F2EF13CDE9BE
:103D400001210090B84A40A912A8FFF72FFF0020D8
:103D500011904098022821DB01240BE012A850F8B2
:103D60002410601E12AA52F82000091A1198084463
:103D70001190641C40988442F0DB4098401E1199D9
:103D800091FBF0F0119041F27071119891FBF0F1FC
:103D90005498016001215598017005E0A449549898
:103DA0000160002155980170002407E012A850F826
:103DB0002400801C30A941F82400641C40988442EF
:103DC000F4DB00240CE0469850F82400954941F8B3
:103DD0002400489850F82400964941F82400641CB7
:103DE0004445F0DB0020429000242DE00120449067
:103DF00030A850F824A04FF080703F900AF10500E1
:103E0000B0F5F77F1FDC0A3800281CDD054611E0FD
:103E1000844850F825103F9881420ADA449808B146
:103E2000002044907F4850F825003F9021A840F89A
:103E300024506D1C0AF105008542E9DB449810B955
:103E40004298401C4290641C40988442CEDB4298C9
:103E5000022808DA7648C9F800000021539801705A
:103E60004AB0BDE8F08F00242EE06E4951F82420BE
:103E70000B46611C53F821100A44A11C53F8211071
:103E80000A44E11C53F821105018C11700EB91713E
:103E900089101A4642F82410664951F824200B462E
:103EA000611C53F821100A44A11C53F821100A4444
:103EB000E11C53F821105018C11700EB91718910C3
:103EC0001A4642F82410641CB4F5F87FCDDB0020BC
:103ED00004900026002404E0002005A941F82400F5
:103EE000641C052CF8DB00240DE021A850F8240008
:103EF000B0F5FA7F06DD4E48C9F80000002153985E
:103F00000170ADE7641C42988442EEDB0024AFE010
:103F10004FF07F400D900C9021A9601C51F82000BB
:103F200051F82410401A0A287ADD21A850F82450AC
:103F300016E03C4850F825100C98814204DD3948C1
:103F400050F825000C900A953A4850F825100D9825
:103F5000814204DD374850F825000D900B956D1C0B
:103F600021A9601C51F82000A842E2DC601C51F835
:103F70002000304951F8200021A951F824102D4A81
:103F800052F82110401A21A951F824200B99891ABE
:103F90004843109021A9601C51F8200051F82410CA
:103FA000411A109890FBF1F021A951F82410214AF0
:103FB00052F821100844109011460B9851F8201027
:103FC0001098081A109021A9601C51F8200015497A
:103FD00051F8200021A951F82410124A52F821105A
:103FE000401A21A951F824200A99891A48430F90B0
:103FF00021A9601C51F8200051F82410411A0F9893
:1040000090FBF1F021A951F82410064A52F8211032
:1040100008440F9011460B9851F820100F980BE0B0
:1040200025E00000840D0020C4050020AE6C0008CF
:1040300019FCFFFF54150020081A0F900C991098D6
:104040004843C01103900D990F984843C711002FA2
:104050000DDD052E0BDA039848B1039800EB8000C4
:10406000800090FBF7F005A941F82600761C641C3F
:104070004298401EA0423FF74BAF314605A8FFF7DC
:10408000E4FC304606EBD0714FEA610BBBF1010F47
:104090000CDDABF1010105AA52F8211052F82B20DA
:1040A000881800EBD0714910049103E005A850F87E
:1040B0002B000490049802280DDD0498B8280ADA31
:1040C00009490498085C0E900E98C9F80000012177
:1040D0005398017005E00548C9F800000021539885
:1040E000017000BFBCE60000EC6C000819FCFFFF8B
:1040F0003EB5CE48CE4908600020CE4908604FF456
:10410000FA70CD4908600020CC4908604DE000BF3E
:10411000CB4800680128FBD0CA490720FFF712FBF3
:10412000C84800788007800BC649497840EA0120DA
:10413000C44989780843C449C04A126841F822003A
:10414000C048C0788007800BBE49097940EA012049
:10415000BC4949790843BD49B84A126841F8220070
:10416000B948B649096850F82100B1490968884240
:1041700006D2B548B149096850F82100AC49086039
:10418000B148AE49096850F82100AA490968884237
:1041900006D9AD48A949096850F82100A549086029
:1041A000A6480068401CA5490860A4480068A249C8
:1041B00009688842ABDBA448A049096850F821008F
:1041C000A3490860A348A449A44AA54BCDE900210E
:1041D00002909D4A984801689C48FFF708FD1AE143
:1041E0006420964908603AE097489449096850F875
:1041F0002110924800686438934A42F8201093488E
:104200008E49096850F821108C48006864388F4A3C
:1042100042F820108C488949096850F821008449E7
:104220000968884206D288488449096850F8210004
:104230007F49086084488149096850F821007D4918
:104240000968884206D980487C49096850F82100ED
:104250007849086079480068401C784908607748C8
:104260000068B0F5FA7FBFDB4FF4C870734908608F
:1042700089E072480068401E734951F82000744973
:10428000086000BF6E4800680128FBD06D49072018
:10429000FFF758FA6B4800788007800B6949497826
:1042A00040EA01206749897808436749634A1268F0
:1042B00041F822006348C0788007800B6149097982
:1042C00040EA01205F494979084360495B4A126826
:1042D00041F822005C485949096850F821005C49BE
:1042E0000968884225D958485449096850F821007E
:1042F00057490968401A4F4909684D4A1268891A96
:10430000B0FBF1F0C0EB0024204602F06DFB5549F4
:1043100008600846006802F033FB53490968081A30
:104320005149086008460068002827DA0020086024
:1043300024E045484149096850F82100444909688A
:10434000091A3C4800683A4A1268801AB1FBF0F03A
:10435000C0EB0024204602F047FB424908600846B3
:10436000006802F00DFB4049096808443E490860B6
:1043700008460068FF2801DDFF2008602F4800681C
:10438000401C2E4908602D480068B0F5FA7FFFF602
:1043900070AF30483049314A314BCDE900210290AD
:1043A000294A254801682948FFF721FC2948007857
:1043B000012830D12948007801282CD126480078DE
:1043C0002A49087026480078294908702748037848
:1043D000284A29A12C4800F045FC25480378254AA5
:1043E0002AA12E4800F03EFC2748FEF7C8FAC82054
:1043F000FEF794F92948FEF7C2FAC820FEF78EF9B5
:104400004FF480611B4800F0CEFD00202449087065
:104410002449086008E022480078012804D1214896
:1044200000681428FFF6DCAE00BF3EBDFFFF0300AE
:1044300054000020580000204000002060000020B0
:10444000248121426C0000208C250020BC1D00200E
:104450005C000020500000204C000020480000209C
:10446000440000206800002064000020720000204A
:10447000730000208401002025732E6E302E76619B
:104480006C3D2564FFFFFF00241D002025732E6E68
:10449000312E76616C3D2564FFFFFF00561D002024
:1044A0007B0100207400002010B588A1894800F02D
:1044B00019FD40B188A18948FEF786FA0120884994
:1044C0000870FFF715FE87A1824800F00BFDC8B108
:1044D0008548007800EB8000844A02EB40117D485B
:1044E000FEF731FB8048007800EB80007F4A02EB4A
:1044F00040117D480078FEF783FB7B480078401C24
:10450000794908707AA1734800F0ECFC002827D0A4
:10451000754802787AA17F4800F0A4FB002406E0E9
:104520007D4800EBC4117B4800F031FD641C6E48EF
:1045300000788442F4DB6D496B480078FEF778FB25
:104540007649744800F023FD75A1724800F01FFD04
:104550007FA1704800F049FA6E4881A10978017086
:1045600080A15C4800F0BEFC78B16B49814800F046
:104570000EFD81A17F4800F00AFD8AA17D4800F070
:10458000FFF98EA17B4800F0BFFC8DA1514800F0DF
:10459000A9FC80B160498031764800F0F8FC76A132
:1045A000744800F0F4FC8AA1724800F0E9F983A194
:1045B000704800F0A9FC8CA1464800F093FC78B14B
:1045C0008D496C4800F0E3FC6BA16A4800F0DFFC09
:1045D0008AA1684800F0D4F978A1664800F094FCFC
:1045E0008CA13C4800F07EFC98B18AA13948FEF7C6
:1045F000ADFB8B498B4800F0CAFC8BA1894800F0C9
:10460000C6FC93A1874800F0BBF96CA1854800F077
:104610007BFC10BD4FF4A060FCF7CAF9FEF748F828
:104620004FF4E130FEF7A0F84FF4E130FEF7F2F876
:104630004FF41650FEF73FF9FFF7E8F826A1274898
:10464000FEF7C2F900F006FAFEF78AFC02E0C82085
:10465000FEF764F8FEF7FBFD0028F8D1FEF740FCFA
:1046600021E07F480078012808D17E490870FFF7D3
:104670001BFF00207A4908707A4908707A49087847
:10468000C11700EB91718910A0EB810159B97549EF
:10469000097841B900207449087008460078401C28
:1046A0000870FEF7F1FDDCE710B501218807FDF782
:1046B00098FC012808D16C480078401C6A490870B1
:1046C00001218807FDF79EFC10BD00006E756D622C
:1046D00065720000840100204F4B0000003801404B
:1046E0007B0100206167650078000020C02D00205C
:1046F0007368616E73697368756178696E00000034
:104700006161D2BBBCD2C8CBD3D02564B8F6C8CBCC
:10471000A3AC000080350020003400208039002048
:10472000B0EFCED2D6C6B6A8BDF1C8D5D5E2B8F6A0
:10473000BCD2CDA5B5C4D2FBCAB3BCC6BBAEA3AC7C
:10474000D3C3343030B8F6D7D6B7FBBBD8B4F000FB
:104750007368616E73692E74312E74787400000072
:104760000000000079756E646F6E67317368756163
:1047700078696E0079000020B0EFCED2D6C6B6A818
:10478000D2BBCFC2BDF1C8D5B5C4D4CBB6AFBCC6C1
:10479000BBAEA3ACD3C3343030B8F6D7D6B7FBBB6F
:1047A000D8B4F00079756E646F6E675F78696C6974
:1047B000312E74312E7478740000000061610000A5
:1047C00079756E646F6E67327368756178696E00B3
:1047D00079756E646F6E675F78696C69322E7431BB
:1047E0002E7478740000000079756E646F6E673304
:1047F0007368756178696E000035002079756E64A4
:104800006F6E675F78696C69332E74312E747874BB
:10481000000000007175657374696F6E0000000020
:10482000003A0020F90000202CB0EFCED2BDE2B457
:10483000F0D2BBCFC2D5E2B8F6CECACCE2A3ACD39D
:10484000C3333030B8F6D7D6B7FBBBD8B4F00000CE
:1048500061695F77656E64612E74332E74787400BD
:104860002C0000207A0100207901002010B54FF4BF
:104870008061B94800F097FB0020B849088010BD5E
:10488000B648008808B901207047B4480088B44988
:104890000988884203D10020B0490880F4E7AF4876
:1048A0000088AF4908800120EEE72DE9F041044679
:1048B0000D46C826204600F04BFB87B23A462146FB
:1048C000A848FEF768F80FE0FFF7DAFF48B9294675
:1048D000A14800F007FB20B1FFF7C8FF0020BDE8AA
:1048E000F0810A20FDF71AFF301EA6F10101CEB2B9
:1048F000EAD10120F3E770B504460D46204600F0EA
:1049000027FB86B2324621469648FEF744F80CE073
:10491000FFF7B6FF30B929468F4800F0E3FA08B137
:10492000002070BD0A20FDF7F9FEF1E72DE9F04106
:10493000ADF5006D07460D468BA1384600F0D2FA62
:104940000446641C89A1204600F0CCFA8046A8EBFE
:104950000406324621460DF5806000F046FB00203B
:104960000DF5806188550B462A4683A1684600F004
:1049700079F96846FEF703F80DF5006DBDE8F081A2
:1049800070B504460D46204600F0E2FA064632466F
:104990007CA1804800F066F903E04FF4FA70FDF75F
:1049A000BDFE7DA17B48FFF780FF0028F5D103E025
:1049B0004FF4FA60FDF7B2FE6EA12046FFF79BFFB1
:1049C0000028F5D14FF4FA70FDF7A8FE4FF4FA7005
:1049D000FDF7A4FE4FF4FA70FDF7A0FE29465E48ED
:1049E000FFF7A4FFFFF742FF70BD70B504460D4608
:1049F000204600F0ADFA0646324662A1654800F056
:104A000031F903E04FF4FA70FDF788FE62A16148C6
:104A1000FFF74BFF0028F5D103E04FF4FA60FDF7F4
:104A20007DFE54A12046FFF766FF0028F5D14FF424
:104A3000FA70FDF773FE4FF4FA70FDF76FFE4FF456
:104A4000FA70FDF76BFE29464348FFF76FFFFFF74B
:104A50000DFF70BD08B501210420FBF745FF1020B4
:104A60008DF803000120ADF8000003208DF802004E
:104A700069464A48FCF76AF8002201214748FCF7DA
:104A800016F9FA20FDF74AFE012211464348FCF7C9
:104A90000EF94FF4FA70FDF741FEFFF7E7FE03E071
:104AA0004FF4FA70FDF73AFE3BA13DA0FFF7FDFE83
:104AB0000028F5D103E04FF4FA70FDF72FFE36A180
:104AC00039A0FFF7F2FE0028F5D103E04FF4FA70A9
:104AD000FDF724FE30A138A0FFF7E7FE0028F5D14E
:104AE00003E04FF4FA70FDF719FE37A138A0FFF785
:104AF000DCFE0028F5D103E04FF44870FDF70EFE10
:104B000025A13BA0FFF7D1FE0028F5D142A14748DF
:104B10000068FFF735FF08BD10B540F22551114878
:104B2000FCF722FBB8B10D480088B0F5806F02D3C6
:104B300000200A4908800B48001D0088C1B20748C0
:104B400002880088401C054B1880034881542021AE
:104B50000448FCF700FB10BD003C00207C01002055
:104B60007E010020004400403A0000007468697330
:104B7000206973207A7A6C0025733D22257322FF09
:104B8000FFFF000041542B43495053454E443D25FF
:104B9000640D0A00004000204F4B00000008014057
:104BA00041540D0A0000000041542B43574D4F441F
:104BB000453D310D0A00000041542B435744484302
:104BC000503D312C310D0A00474F54204950000010
:104BD00041542B43574A41503D22777777222C226C
:104BE000777777313233343536220D0A00000000F2
:104BF00041542B43495053544152543D2254435045
:104C0000222C223137322E32302E31302E32222CCD
:104C1000383038300D0A00007469616E7169797539
:104C200062616F2E74312E74787400008001002050
:104C30007CB51D4616460C00009001D02044401E55
:104C4000074B7B442A4669460190304600F0E7FA5C
:104C500005461CB10020694600F0F4FA28467CBDE8
:104C6000090600000FB41CB5084B06AA7B44694630
:104C70000090059800F0D3FA04460020694600F041
:104C8000E1FA20461CBC5DF814FB0000D5050000CD
:104C900070B50C460546012A05D02878800600D557
:104CA000EA69002302E0012305E05B1C934202D283
:104CB000E05C0028F9D1A869E618C01AA861286A42
:104CC00018442862284600F0FEF904E0D5E90121E5
:104CD00014F8010B9047B442F8D3284600F009FAC3
:104CE00070BD00002DE9F0410646002410687529CA
:104CF000314616A510D000F00DFA002802DA404225
:104D000013A507E031688A0701D512A502E049071B
:104D100004D511A5012401E000F005FA00210A22C2
:104D200006F1240709E0B0FBF2FCB0FBF2F302FB52
:104D30001C00303078541846491C0028F3D1234613
:104D40002A463046BDE8F04100F0F6B90000000008
:104D50002D0000002B000000200000002DE9F05F76
:104D6000894604464FF0000ADFF874B1FB44C0F8EE
:104D700020A02046E1688847002874D0252806D066
:104D8000D4E901219047206A401C2062F1E7002607
:104D90005F462046E16888472028054607DB312D1D
:104DA00005D2781910F8200C08B10643F1E7B007D6
:104DB00001D526F00406C4F81CA00027C4F818A0EA
:104DC0002A2D09D0284601F084FC38B304EB87086B
:104DD000303DC8F8185019E059F8041B204604EB80
:104DE00087029161E1688847012F054618D1E06983
:104DF000002820DA26F020061DE0D8F8180000EB85
:104E0000800005EB40003038C8F818002046E16803
:104E10008847054601F05DFC0028EED1012F0AD03D
:104E20002E2D08D12046E16888477F1C0546022FB9
:104E300046F02006C4DBA069002803DA404246F0B1
:104E40000106A061F00701D026F010066C2D0BD0F2
:104E5000682D09D04C2D39D06A2D35D0742D35D020
:104E60007A2D33D016E038E0E1682F462046884797
:104E7000B842054609D16C2F26D04FF48060E16816
:104E8000064320468847054604E06C2F1AD04FF4AD
:104E9000807006430DB3A5F14100192802D82035D2
:104EA00046F400664A462946204626604E46FBF7F1
:104EB00099F980B101280BD0F61D26F0070000F10A
:104EC000080956E74020E4E78020D8E70020D6E72D
:104ED00006F104094DE7284652E7206ABDE8F09F35
:104EE0003420000030B505460B462A4613F8014B26
:104EF00012F8010B08B1A042F8D01CB1002802D072
:104F00006D1CF1E7284630BD40EA0103024630B58A
:104F10009B0710D14FF0013400E008C208C91D1BE7
:104F20009D4315EAC41FF8D013F0FF0102F8011BDE
:104F30000DD01B0AF8E711F8013B002B02F8013BEA
:104F400005D011F8013B002B02F8013BF3D130BD35
:104F500010B5431C02E010F8011B71B18107FAD1B2
:104F60004FF0013202C88C1A8C4314EAC211F9D0F6
:104F7000C01A0A0603D0C01E10BDC01A10BD0A0414
:104F800001D0801E10BD0902FCD0401E10BD421E83
:104F900012F8013F002BFBD111F8013B002B02F866
:104FA000013BF9D170474FF000020429C0F0128094
:104FB00010F0030C00F08A82CCF1040CBCF1020F5B
:104FC00018BF00F8012BA8BF20F8022BA1EB0C01A1
:104FD00000F07CBA5FEAC17C24BF00F8012B00F826
:104FE000012B48BF00F8012B704710B5044610F0A4
:104FF000030F08BF11F0030F40F015804FF0013E82
:10500000121FC0F20E8051F8043BA3EB0E0C2CEAE9
:10501000030C1CEACE1C08BF40F8043BF0D0A1F101
:10502000040102F10402521E08DB11F8013B002BBF
:1050300000F8013BF7D11146FFF7B5FF204610BD40
:105040004FF0013C50F8042B51F8043B9A4221D117
:10505000A2EB0C03934313EACC1317D150F8042BA3
:1050600051F8043B9A4215D1A2EB0C03934313EA87
:10507000CC130BD150F8042B51F8043B9A4209D1C0
:10508000A2EB0C03934313EACC13DBD04FF00000E8
:10509000704700BFD01A01BAB1FA81F101F01801CE
:1050A00022FA01F0CB40C1F12001DBB2C0B2C01A3C
:1050B0002CFA01F3D11A914311EAC311E6D17047DA
:1050C00070477047704770B5044685690068C1062F
:1050D00001D5302600E02026C00707D070BDD4E9F6
:1050E000012130469047206A401C20626D1EF6D593
:1050F00070BD70B5044685690078C00707D170BDE2
:10510000D4E9012120209047206A401C20626D1EB6
:10511000F6D570BD09684A0501D540B27047C9058A
:10512000FCD500B2704709684A0501D5C0B2704786
:10513000C905FCD580B270472DE9F0470D46994668
:105140009246044600F124080168880604D5E06907
:1051500021F01001216000E00120A84201DD471B81
:1051600000E00027A1697A1902EB0900081AA06182
:105170002078C00602D42046FFF7A5FF002608E0ED
:10518000D4E901211AF806009047206A401C761CD9
:1051900020624E45F4DB2078C0060AD52046FFF792
:1051A00092FF06E0D4E9012130209047206A401C9C
:1051B0002062381EA7F10107F4DC07E0D4E90121E1
:1051C00018F805009047206A401C2062281EA5F1AF
:1051D0000105F3DC2046FFF78CFF2078000602D59E
:1051E0000220BDE8F0870120FBE711680268006A31
:1051F000530501D508700AE0D30501D5088006E003
:10520000130603D5C217C1E9000200E008600120BF
:105210007047000001694A1C02610878704700B5B8
:105220008FB0CDE901310021059105497944CDE9DF
:10523000031011466846FFF791FD0FB000BD000056
:10524000E5FFFFFF0A6802F8010B0A607047D1E929
:1052500000239A4202D2531C0B601070704710B5A5
:10526000436913B1AFF3008001E0FFF711FD0120A6
:1052700010BD127800F124010A7000224A70012248
:10528000EDE711684FF0FF32E9E700002DE9FF5F1D
:1052900015468A460446DFF8AC80F8440027D8E972
:1052A00000103E46CDE9001010E03AF816106A46AC
:1052B00002A800F019FD411C07D02178890603D50A
:1052C000E269391891420DD80744761C207880068F
:1052D00002D5E069B84205DDAE42E6DB3AF81600D9
:1052E0000028E2D1A069C01BA0612046FFF7EBFEB9
:1052F000D8E90010CDE90010002017E03AF81810A6
:105300006A4602A800F0F0FCB0F1FF3F81460BD0E6
:1053100000250DF1080B05E0D4E901211BF805007B
:1053200090476D1C4D45F7D308F10100B04280460F
:10533000E4DB206A384420622046FFF7DAFEBDE84D
:10534000FF9F00001A1B00002DE9F0418046D21D8E
:1053500022F007020025D2E90002F52915A614D093
:10536000011E72F1000106DA0023D0EB030063EBAB
:10537000020211A608E0D8F800108B0701D50FA68D
:1053800002E0490701D50EA601251146002408F1C7
:10539000240704E000F0BFF830323A55641C50EAAC
:1053A0000102F7D12B46324621464046BDE8F04186
:1053B000FFF7C2BE000000002D0000002B0000001F
:1053C0002000000030B4002100F1240408E002F0C5
:1053D0000705D208303542EA4372DB086554491CA0
:1053E00052EA0305F3D10468002310A2250707D56C
:1053F000A40600D421B1C46901230DA2641EC461B6
:1054000030BCFFF799BE10B5044621461068FFF77F
:105410008AFE02462046BDE810400023D2E7D21D96
:1054200022F00701D1E90023CCE7000000000000D2
:1054300030000000F0B40D460188090502D5214C6A
:105440007C4402E01F4C7C440E34002100F1240611
:1054500008E002F00F071209E75D42EA03721B0938
:105460007754491C52EA0307F3D10278002312074C
:1054700004D5702D06D009B1022311342246F0BCA8
:10548000FFF75ABE01231034F8E770B504460D4605
:1054900021461068FFF747FE024629462046BDE830
:1054A00070400023C6E7D21D22F00703D3E9002392
:1054B000C0E70368126843F0200303600823C36158
:1054C0000023B7E77C1900004FF0000200B5134637
:1054D00094469646203922BFA0E80C50A0E80C5014
:1054E000B1F12001BFF4F7AF090728BFA0E80C50C5
:1054F00048BF0CC05DF804EB890028BF40F8042BBE
:1055000008BF704748BF20F8022B11F0804F18BF2A
:1055100000F8012B704730B5B0F10A024FEA900E47
:1055200071F100034EEA817EB0EB0E0061EB910158
:105530004FEA101E4EEA017E10EB0E0041EB1111F6
:105540004FEA102E4EEA016E10EB0E0041EB1121D6
:105550004FEA104E4EEA014E10EB0E0041EB1141A6
:10556000401841F100014FEAD00040EA41704FEA93
:10557000D10110EB80054FEA810444EA907444EBBA
:1055800001046D1944EB0404521BA3414FF00003C6
:1055900048BF0A3200D530BD401C41F1000130BD8A
:1055A00070472DE9FF4F0C461E464FF0FF378BB07A
:1055B000D2E90001DDF860800A908A46C1F30A55FD
:1055C00005B93D46002108464FF00000BAF1000F32
:1055D00000F4400005DA00EB80004FF4400101EADE
:1055E00050004FEA9059B9F1010F00DDB9460A9811
:1055F00050EA4A000ED044F61050A5F2FF3545435C
:105600002F14B8F1000F1ED07542291E1EDDC9F1FE
:1056100000021CE0B8F1010F4FF0000001D0302172
:1056200003E0F24305E02154401CB042FBDB30466E
:105630000022002121540B99C1F80880C1E9002003
:105640000FB0BDE8F08FBD1B6D1CDEE74A4600DAE7
:10565000694206A800F0DAFB06AB93E8070003AB4B
:1056600083E8070050460A9900F057FC8DE80700D0
:10567000A0F500501F3800900398002D0ADD42F27B
:105680001F014A460844002303A90390684600F01E
:10569000C0FE09E0A0F500504A461F38002303A9C8
:1056A0000390684600F0CAFE8DE807000004000C75
:1056B00003D04FF0FF30410800E01046B8F1000F72
:1056C00003D00022009215461EE0751E05D4FFF798
:1056D00022FF303262556D1EF9D5B34601220843D0
:1056E00002D000227F1C04E02078302801D1002263
:1056F0007F1E002A099784D01DE0112D07DAFFF7DD
:105700000AFF303262556D1C50EA0102F5D10843A0
:1057100002D00098C8B10EE00021681E05E0235CAD
:10572000625C63542254401E491C8142F7DBAB4645
:10573000A81B401E0990002004F80B000B98099A42
:10574000C0F80880C0E9002B7AE711264FF0000866
:1057500057E72DE9F04F88460446D21D22F0070195
:1057600091B0D1E90001CDE90A0100F09EFF0246A7
:105770000B98C00F01D02D2007E02068810701D5CC
:105780002B2002E0202101EAC000032A099001D069
:10579000072A05DB03464146204600F0F7FA0BE1F5
:1057A0002078800601D5E06900E00620B8F1650F99
:1057B000814606D0B8F1660F18D0B8F1670F70D1E6
:1057C00031E00020B9F1110F009001DB112301E05D
:1057D00009F101030AAA01A90CA8FFF7E2FEDDE91D
:1057E0000C70002609F10105834647E001204B4675
:1057F00000904FF000470AAA01A90CA8FFF7D1FEBC
:10580000DDE90DB00C995D46002610B909F10100E3
:105810000D18B9EB050003D4C0F1FF3609F10105FD
:10582000A5EB09002BE0B9F1010F01DA4FF00109F6
:105830000020B9F1110F0090484601DD112300E06E
:1058400003460AAA01A90CA8FFF7ABFEDDE90C701C
:105850004D4600268346207800070AD4AB4500DA7F
:105860005D4601A8012D04DD411911F8011C302904
:1058700007D04F4502DA17F1040F04DA01208246FF
:105880000FE06D1EEEE7002F02DCED1B3E4403E04F
:10589000781CA84200DD7D1CB81B00F1010A4FF006
:1058A00000472078000703D4AA4501DB4FF0FF3AF8
:1058B0000021B7F1004F0DF143088DF8431024D0BB
:1058C00002202B23002F01DA7F422D230A21021E02
:1058D000A0F1010000DC5FB197FBF1FC97FBF1F256
:1058E00001FB1C7C17460CF1300C08F801CDEEE7EB
:1058F000A8F1010003702188090501D5452100E0C8
:105900006521A0F1010800F8011C09980FA9A1EB7D
:105910000807FF1D00B10120411901EBEA70A169E0
:105920003844081A401EA0612078C00602D42046E0
:10593000FFF7C9FB099828B1D4E901219047206AF3
:10594000401C20622078C00622D52046FFF7BBFB12
:105950001EE0002E04DBB34502DD01A8805D00E0FF
:105960003020D4E901219047206A401C2062761C37
:10597000AAF101005FEA000A0AD100F003FAC06848
:105980000168405CD4E901219047206A401C2062F4
:10599000281EA5F10105DCDC07E0D4E9012118F897
:1059A000010B9047206A401C2062381EA7F10107B6
:1059B000F3DC2046FFF79DFB032011B041E6000019
:1059C0002DE9F04F04460D46D21D22F0070089B0A4
:1059D000D0E900974846394600F067FE0246F80FC6
:1059E00001D02D2307E02068810701D52B2302E099
:1059F000202101EAC0038DF820300BB1012000E026
:105A00000020032A824601D0072A04DB29462046CB
:105A100000F0BCF93FE12078800601D40D2500E0BC
:105A2000E569C7F30A560D2D49DA00214FEA175BE5
:105A300008464FF00000002F00F4400007DA00EBAA
:105A400080004FF4400100EBD07001EA6000811546
:105A5000012901DD4FF0FF3100224FEA850CBCF136
:105A6000180F06D31346ACF118004FF08052C24015
:105A700003E04FF4801323FA0CF30CF10C0CBCF18F
:105A8000200F04D3ACF1200C09FA0CF001E007FA66
:105A90000CF000294FF0004801DD18B90FE00ED1DD
:105AA00040450CD319EB02095F4121B9404502D1B1
:105AB0009F4329EA0209BBEB175F00D0761C2088C0
:105AC000000502D57B48784402E07A4878441938CA
:105AD00008AA302302F80A30037C0AF10101002EE3
